:020000040800F2
:10000000181D0020FD01000883270008C9240008EE
:100010008127000883090008BD2B000800000000AC
:100020000000000000000000000000006501000862
:100030002B0B000800000000A9010008A9280008F7
:10004000170200081702000817020008170200082C
:10005000170200081702000817020008170200081C
:10006000170200081702000817020008170200080C
:1000700017020008F50A0008170200081702000816
:10008000170200081702000817020008910900086B
:100090008509000817020008170200081702000867
:1000A00017020008170200081702000817020008CC
:1000B00017020008170200081702000817020008BC
:1000C00017020008170200081702000817020008AC
:1000D000170200081702000817020008B12B0008D9
:1000E00017020008170200081702000800000000AD
:1000F0000000000000000000000000000000000000
:1001000000000000000000001702000817020008AD
:10011000170200081702000817020008170200085B
:10012000170200081702000817020008170200084B
:10013000170200080000000000000000170200087D
:10014000170200081702000817020008170200082B
:10015000DFF80CD000F094FB004800470935000898
:10016000181D0020224B19680868B0E8F00F80F3D2
:100170000988BFF36F8F4FF0000080F311884EF0B5
:100180000D0E70470000000006480068006880F30C
:10019000088862B661B6BFF34F8FBFF36F8F00DF81
:1001A00000BF00BF08ED00E0EFF30980BFF36F8FE1
:1001B0000F4B1A6820E9F00F106008B54FF050009F
:1001C00080F31188BFF34F8FBFF36F8F03F0D4FF1D
:1001D0004FF0000080F31188BDE8084019680868F6
:1001E000B0E8F00F80F30988BFF36F8F704700BF4E
:1001F0001C000020EFF30580704700000648804790
:1002000006480047FEE7FEE7FEE7FEE7FEE7FEE7FB
:10021000FEE7FEE7FEE7FEE71129000851010008AE
:100220002DE9F05F0546002092469B46884606462B
:10023000814640241BE0284641464746224600F0BE
:1002400020F853465A46C01A914110D31146184619
:10025000224600F017F92D1A67EB01084F46224697
:100260000120002100F00EF917EB00094E41201E7D
:10027000A4F10104DFDC484631462A464346BDE886
:10028000F09F202A04DB203A21FA02F00021704777
:1002900021FA02F3D040C2F12002914008431946EE
:1002A000704740EA01039B0703D009E008C9121F09
:1002B00008C0042AFAD203E011F8013B00F8013B20
:1002C000521EF9D27047D2B201E000F8012B491E4C
:1002D000FBD270470022F6E710B513460A460446E3
:1002E0001946FFF7F0FF204610BDF0B480EA010286
:1002F000D40F4200B2EB410F02D20246084611462B
:100300004A0042D0C30DDDB2C1F3C752AD1A202D51
:1003100035DAC1F3160141F4000204B15242C5F1CD
:10032000200602FA06F12A411044B3EBD05F23D035
:10033000C4B1012DA0EBC35009DCF0BC4FF000426A
:1003400002EAC352DBB200F5000000F0B3B840008F
:1003500000F1807000EBC350A0F1807040EAD170D2
:10036000490009E0490841EAC071A0EBC35000F51B
:100370000000400800EBC350F0BC00F092B86142AE
:10038000012202EB4101001BF6E7F0BC704781F04F
:100390000041AAE780F00040A7E780EA010210B51B
:1003A00002F00043400022D04A001FD0010E01EBB2
:1003B0001261C0F35600C2F3560240F4000042F44A
:1003C0000002A0FB022000047F39140400D0401C6E
:1003D00050EA124001D44000491EC2B20C0604EBA0
:1003E000D010401C4008802A02D003E0002010BD3D
:1003F00020F00100002900DA0020184310BDC10FD1
:1004000080EAE0700844CA079623002100F052B841
:1004100000F0004220F00040C10DC0F3160040F48F
:1004200000007F2901DA00207047962903DCC1F122
:100430009601C84001E096398840002AF4D0404235
:1004400070470000002801DBC0F10040002901DBFB
:10045000C1F100418842704730B50B46014600208B
:100460002022012409E021FA02F59D4205D303FA76
:1004700002F5491B04FA02F52844151EA2F10102F7
:10048000F1DC30BD202A04DB203A00FA02F1002022
:1004900070479140C2F1200320FA03F319439040C2
:1004A00070470029A8BF7047401C490008BF20F0D2
:1004B0000100704710B4B0FA80FC00FA0CF050EA6A
:1004C000010404BF10BC704749B1CCF1200421FAEB
:1004D00004F411FA0CF118BF012121430843A3EBE6
:1004E0000C01CB1D4FEA00614FEA102042BF0020F3
:1004F00010BC704700EBC35010440029A4BF10BCCF
:100500007047401C490008BF20F0010010BC704734
:100510002DE9FE4F804681EA0300C00F0C46009093
:1005200021F0004123F00045B8EB0200A94105D2BB
:100530004046214690461C460B46024623F00040AA
:10054000104347D0270DC7F30A00C3F30A510290A6
:10055000401A019040286BDAC3F3130040F4801B6B
:100560000098924620B10023D2EB030A63EB0B0BF9
:1005700001985946C0F140025046FFF783FF0646F6
:100580000D4650465946019A00F08CF910EB0800D0
:100590006141002487EA115284EAE7731A4340D08C
:1005A000009A62B3019A012A4FEA075215DC001B38
:1005B00061EB02014FF0004202EA0752CDE900422E
:1005C000001C41F5801132462B4600F08CF903B037
:1005D000BDE8F08F40462146F9E7001B61EB0201C0
:1005E000001C41F5801300185B412018A2F500178C
:1005F00047EB030140EAD570B6196D4111E06D0873
:100600004FEA360645EAC0754FEA0752001B61EB18
:100610000201001C41F5801149084FEA3000001921
:10062000514132462B4603B0BDE8F04F00F04CB9C3
:100630000098012240000023D0EB020263EBE0733C
:10064000009821464FEAE074B8EB000061EB04012A
:10065000E9E783F000435BE781F0004158E72DE9CB
:10066000FE4F81EA030404F0004421F000410094AD
:100670004FF0000B23F0004350EA01045ED052EA31
:1006800003045BD0C3F30A54C1F30A552C44A4F20B
:10069000F3340194A0FB0254C1F3130141F480111F
:1006A000C3F3130343F4801301FB024400FB034E26
:1006B000840A970A44EA815447EA8357A4FB0768EF
:1006C00002958D0A05FB07854FEA932C04FB0C5419
:1006D0002705029D4FEA065847EA1637B5EB08058D
:1006E0006EEB070C870E920E47EA811742EA8312DF
:1006F000A7FB0201B6EB0B0164EB00042B0D43EAF0
:100700000C335E1844EB1C50DA465146E7FB0201FD
:10071000C5F313044FEA0B3343EA14534FEA043290
:10072000019C43EA0603A4F10C040294009CCDE969
:1007300000B400F0D8F803B0BDE8F08F0020014607
:10074000F9E72DE9F04D81EA030404F0004B21F0B4
:10075000004514464FF0000A23F0004150EA05021C
:1007600020D054EA01021DD0C5F30A570246C5F352
:100770001303C1F31300C1F30A5640F4801543F488
:100780008013A7EB0608101BD64608F2FD3873EB62
:10079000050002D308F1010801E092185B41B8F1AD
:1007A000000F03DA00200146BDE8F08D00204FF471
:1007B0008011064684460EE0171B73EB050705D330
:1007C000121B63EB050306434CEA010C49084FEA90
:1007D000300092185B4150EA0107EDD152EA030064
:1007E00012D082EA040083EA0501084305D0101BF9
:1007F000AB4106D20122002306E000224FF0004365
:1008000002E06FF0010253101AEB06004CEB0851A6
:1008100010EB0A0041EB0B01BDE8F04D00F054B8BD
:10082000C1F30A52C1F3130140F2FF3341F48011C6
:100830009A4202DA00200146704740F233439A425E
:10084000A2F2334202DC5242FFF71BBDFFF71ABE91
:1008500030B5041E71F1000404DB4FF00044404247
:1008600064EB0101141E73F1000405DB1C464FF01C
:100870000043524263EB0403994208BF904230BDEB
:10088000064C074D06E0E06840F0010394E80700DD
:1008900098471034AC42F6D3FFF75EFC684D000871
:1008A000884D0008202A06DBCB17203A41FA02F0D7
:1008B00043EAE07306E041FA02F3D040C2F12002BD
:1008C000914008431946704710B5141E73F1000497
:1008D00008DA401C41F1000192185B411A4301D132
:1008E00020F0010010BD2DE9F04D92469B4611B15C
:1008F000B1FA81F202E0B0FA80F220329046FFF7BE
:10090000C1FD04460F4640EA0A0041EA0B01534686
:100910005A46084313D0114653EA010019D0C8F1D2
:1009200040025046FFF7ADFC05460E46504659467C
:100930004246FFF7A7FD084305D0012004E020460A
:100940003946BDE8F08D0020054346EAE0762C43A9
:1009500037430A986305E40AA0EB08000022FD0A69
:1009600044EA47540A3002D500200146E9E7010570
:1009700010196941DDE9084500196941BDE8F04DEC
:10098000A2E7FEE7014800F044BA0000F0000020B2
:10099000014800F03EBA0000F000002010B50A88BF
:1009A000C2F30A02A2F5806202804A788B78D208EC
:1009B00042EA4312C2F30A02A2F5806242808A78B8
:1009C000CB78920942EA83020B7942EA8322C2F38E
:1009D0000A02A2F5806282800A794B79520842EAC3
:1009E000C312C2F30A02A2F58062C2804A79920958
:1009F00002724A79C2F301124272CA8842810A899C
:100A000082814A89C2810A7B02744A7B4274C98905
:100A1000418200F0CFFE054908604A68821AB2F5AB
:100A2000FA7F00D94860886010BD00007C0000207B
:100A300008B520A002F0C4F8234FDFF89080244DC1
:100A40005FF00004C4EBC40005EB4006B6F90600F5
:100A5000FFF7D5FC024604EB840000EBC40007EB73
:100A60008000414602F0F1FEFFF7D2FC641CE4B2C4
:100A70003081072CE6D317A002F0A2F8B5F93200B6
:100A80000090B5F92230B5F91420B5F90610002010
:100A900003F05CF91648E9880180A98A4180698CD5
:100AA0008180698EC18003F07FF90A2002F0A0FEE8
:100AB000C6E70000496E20436861737369735F5431
:100AC00061736B210D0A00003413002000007A4589
:100AD0008A000020496E20436861737369735F5414
:100AE00061736B2773206C6F6F700D0A000000003C
:100AF00024130020014800F0D9BB0000F0010020C1
:100B000030B590F840500124AC40C56B6C6004686F
:100B100063604368102B036803D099600068C2606B
:100B200030BD9A600068C16030BD7047704790F872
:100B30002020012A07D0022A05D0416A41F48021F1
:100B4000416201207047006842690A434261002007
:100B50007047F0B590F820500468A468012D05D0C6
:100B6000022D03D0416A41F4802153E014F0406F1C
:100B700001D1E5004BD5C4F30164022C03D9416ACD
:100B800041F4000146E00125A5401D608D684FF449
:100B9000C0739DB1CE6835434E6845EAC605066808
:100BA00003EB0417F5514FF4C275076805EB041504
:100BB0000E697E51097D012905D009E00E88CD68B6
:100BC00045EA4655EBE701684E5946F480764E51AA
:100BD0001179D2F805504FF4C67641EA052501682F
:100BE00006EB04168D511178D2F801204FF4C4752C
:100BF00041EA0221026805EB04155151006803EB3C
:100C00000411425842F0010242500020F0BD416AF6
:100C100041F4001141620120F0BD000010B590F8D0
:100C20002020012A07D0022A05D0416A41F4802100
:100C30004162012010BD3B48D0F8002242F0010281
:100C4000C0F80022D0F8002222F47C52C0F8002222
:100C5000D0F800224B6A42EA0322C0F800220A7D43
:100C600002F01F0301229A40D0F81C329343C0F8CF
:100C70001C32CB69B3B9D0F80C329343C0F80C32B4
:100C80008C894B6864F31F434C6900EBC404C4F8BF
:100C900040320C890B6864F31F434C6900EBC404B9
:100CA000C4F84432CB69012B16D1D0F80C3213436F
:100CB000C0F80C320C884B6864F31F434C6900EB9E
:100CC000C404C4F840320C89CB6864F31F434C69F8
:100CD00000EBC404C4F844328B69002BD0F8043212
:100CE0000ED01343C0F804320B69002BD0F8143235
:100CF00008D01343C0F81432096A012904D008E06F
:100D00009343EFE79343F5E7D0F81C121143C0F883
:100D10001C12D0F8001221F00101C0F800120020CE
:100D200010BD000000640040704730B590F82040CE
:100D3000012C05D0022C03D0416A41F480215DE0F2
:100D40000468002955D02469A40754D04FF4D874FE
:100D5000056804EB01142D5915F00405956005682C
:100D60002D594ED0ED08556005682C59C4F3400448
:100D7000D4604FF4DA74056804EB01142D5905F0C2
:100D80000F05156105682D59C5F30725956105689F
:100D90002C59240C54614FF4DC72046802EB0112EC
:100DA000A4581C700468A458240A5C700468A458F1
:100DB000240C9C700468A258120EDA704FF4DE7294
:100DC000046802EB0112A4581C710468A458240A98
:100DD0005C710468A458240C9C710468A258120E1B
:100DE000DA71006881B1016941F0200101610020E0
:100DF00030BDE468A8E7416A41F400114162012076
:100E000030BD6D0D1560AFE7C16841F02001C160D4
:100E1000EDE72DE9F05F0546006800244669D0F84B
:100E200004908768D0F80CB0D0F810A0D0F81880E3
:100E3000F10748D0F90714D001218160B80703D524
:100E4000284600F02CFA0CE0780702D54FF4006435
:100E500007E0380702D54FF4805402E0284600F03E
:100E60001DFAF80516D529684FF480708860B8051A
:100E700003D5284600F015FA0CE0780502D544F4B5
:100E8000005407E0380502D544F4804402E02846C7
:100E900000F006FAF80316D529684FF48030886010
:100EA000B80303D5284600F0FEF90CE0780302D51C
:100EB00044F4004407E0380302D544F4803402E0EF
:100EC000284600F0EFF9300707D55FEACB6004D57C
:100ED0002968102044F40074C86070074FF00807B8
:100EE00007D55FEA0B7004D52868C760284600F074
:100EF0006DF9B00706D52868C068800702D028467B
:100F000000F066F9700607D55FEACA6004D5296863
:100F1000102044F480640861B00607D55FEA0A70C7
:100F200004D528680761284600F088F9F00606D540
:100F300028680069800702D0284600F080F9B003D5
:100F400008D55FEAC96005D52968102048602846A1
:100F500000F076F9F00307D55FEA097004D5286838
:100F60004760284600F0A0F9300446D55FEA497092
:100F700040D5F00504D55FEAC87001D044F0010403
:100F8000B00504D55FEA887001D544F0020470050D
:100F900004D55FEA487001D544F00404300529D532
:100FA00018F0700F26D008F07000402815D006DC2D
:100FB000102809D020280AD0302816D10AE050285D
:100FC0000ED0602811D10EE044F008040DE044F08A
:100FD00010040AE044F0200407E044F0400404E078
:100FE00044F0800401E044F480742868816921F0B1
:100FF00070018161296804204860002C05D0686A6E
:10100000204368622846FFF78FFEBDE8F09F70B569
:10101000040003D094F8200010B104E0012070BD5A
:10102000204600F081F82068016821F0020101608B
:1010300000F0C0FB0546052604E000F0BBFB401BAA
:101040000A2811D8206840688007F6D42068016813
:1010500041F00101016000F0ADFB05460BE000F03E
:10106000A9FB401B0A2806D9606A40F40030606280
:1010700084F82060D2E720684068C007EFD0207E67
:101080000128206801683DD021F080010160607E68
:1010900001282068016838D021F040010160A07E5D
:1010A00001282068016833D021F020010160E07E32
:1010B0000128206801682ED041F010010160207FD6
:1010C00001282068016829D021F008010160607FB3
:1010D00001282068016824D021F004010160D4E9CE
:1010E00002010843D4E90412114308436168491E10
:1010F00008432168C86100206062012084F8200054
:10110000002070BD41F08001C0E741F04001C5E71B
:1011100041F02001CAE721F01001CFE741F00801BA
:10112000D4E741F00401D9E710B586B00021009161
:101130000191029103910068204988423BD12048E7
:10114000C16941F00071C161C16901F00071049190
:10115000816941F00801816180691A4C00F0080042
:1011600004904FF4807000906946204600F03AFAEF
:1011700060150090022001900320039069462046EC
:1011800000F030FA1048416821F4C04141F0E061BC
:1011900041F48041416000220D21132000F07AFBD0
:1011A000132000F06BFB00220D21142000F072FBD5
:1011B000142000F063FB06B010BD00000064004086
:1011C00000100240000C0140000001407047000088
:1011D00000B5184A016889B0914204D107AB6A464C
:1011E0000021FFF7A2FD00991348A1F2052107296C
:1011F00017D20288C9B2521C0280C1EBC103BDF8EC
:101200001C20811C01EB430152BA8A80BDF81E20CC
:1012100052BACA80BDF8202052BA4A819DF82220D5
:101220000A730188B1F5FA7F01D10021018009B06C
:1012300000BD000000640040880000207047704737
:101240007047000070B5044690F82000012804D0D3
:10125000606A40F40020606218E0022084F82000F8
:101260002068016821F00101016000F0A3FA054641
:101270000EE000BF00F09EFA401B0A2808D9606A01
:1012800040F400306062052084F82000012070BD29
:1012900020684068C007EDD1606270BD704770473C
:1012A0007047704770477047704700002DE9F05F46
:1012B000C16B0A6801680B68046C4FF0040808FAF7
:1012C00004F8844D844E854FDFF814C2DFF8149281
:1012D000DFF814A2DFF814B2DFF814E218EA020F04
:1012E00065D05FEA437862D50A68920603D40A683B
:1012F00022F004020A60DFF8F0814FF48062016896
:1013000008F1140813011402414524D9A9420DD053
:10131000B1420FD0B9421AD0614515D0494515D018
:10132000514501D1120312E0594501D104220EE0CA
:10133000714501D140220AE06D4D1435A94206D015
:101340006B4A2832914201D11A4600E02246674991
:10135000091F0A6029E0A94213D0B14215D0B94251
:1013600020D061451BD049451BD0514502D14FF4D7
:10137000800217E0414502D14FF0806212E05945EA
:1013800001D104220EE0714501D140220AE0584DFE
:101390001435A94206D0564A2832914201D11A4644
:1013A00000E022464B4908394A60C16A71E04FF0BB
:1013B000020808FA04F818EA020F70D05FEA83788E
:1013C0006DD50A68920606D40A6822F00A020A60FD
:1013D000012180F82110DFF810814FF400720168BC
:1013E00008F1140813011402414524D9A9420DD073
:1013F000B1420FD0B9421AD0614515D0494515D038
:10140000514501D1120312E0594501D102220EE0EB
:10141000714501D120220AE0354D1435A94206D08C
:10142000334A2832914201D11A4600E022462F4920
:10143000091F0A6029E0A94213D0B14215D0B94270
:1014400020D061451BD049451BD0514502D14FF4F6
:10145000001217E0414502D14FF0007212E05945E9
:1014600001D102220EE0714501D120220AE0204D77
:101470001435A94206D01E4A2832914201D11A469B
:1014800000E02246134908394A60002180F8201004
:10149000816A00291CD0BDE8F05F0847FFE70825F6
:1014A000A540154214D01A0712D50A6822F00E0280
:1014B0000A6090F84020C36B012101FA02F25A60E1
:1014C000816380F82110002180F82010016BE0E793
:1014D000BDE8F09F080002401C00024030000240BE
:1014E00044000240580002406C00024008040240E0
:1014F0001C04024030B560B11A4B026814219A42B4
:1015000009D2194B1344B3FBF1F189000164174967
:101510000AE0012030BD134B5B421344B3FBF1F1F1
:10152000890001640F490839C163022180F8211044
:10153000136843F6F0718B43F0E901142143D0E9BD
:1015400002452C43214304692143446921438469B2
:101550002143194311600021416301224277017741
:10156000084630BD08040240F8FFFDBF00000240FD
:1015700070B5044690F82000002501280CD0012009
:1015800084F8200094F821600020012E06D084F811
:1015900020000225284670BD022070BD022684F876
:1015A0002160A0632068066826F0010606602046D8
:1015B000FFF7A6FA2068016841F001010160E9E740
:1015C00070B5044600F0F6F80546601C02D00448E9
:1015D0000078044400F0EEF8401BA042FAD370BD3E
:1015E0000C0000202DE9F84FDFF890A100220AF14D
:1015F000040B144601274FF00F090BF1040E00BF36
:101600000B6807FA04F52B40AB4274D1DFF870C1C8
:101610004E68A6EB0C0866452BD00DDC032E34D0AB
:1016200005DC36B3012E19D0022E2FD11BE0112E6E
:1016300016D0122E2AD119E0B8F5881F19D006DC71
:10164000B8F5803F15D0B8F5801F1FD111E0B8F56F
:10165000001F0ED0B8F5041F18D10AE0CA6815E0C3
:10166000CA68121D12E0CA6808320FE0CA680C325C
:101670000CE08A682AB1012A4FF0080203D04561C4
:1016800004E0042202E0056100E00022FF2B01D803
:10169000064601E000F104064FEA840501D9A5F1F0
:1016A0002005D6F800C009FA05F82CEA080C02FA61
:1016B00005F54CEA050CC6F800C04D68ED0057D59D
:1016C000304DAE6946F00106AE61AD6924F0030607
:1016D00005F0010500952C4D06EB050CDCF80850D3
:1016E000A6074FEA167809FA08F6B543274EB04226
:1016F00002D1002610E03BE0254EB04201D1012688
:101700000AE0244EB04201D1022605E0224EB0424A
:1017100001D1032600E0042606FA08F62E43CCF891
:1017200008604D68DAF80060ED03554601D51E43A8
:1017300000E09E432E604D68DBF80060AD035D461F
:1017400001D51E4300E09E432E604D68DEF8006028
:10175000ED02754601D51E4300E09E432E604D68A4
:10176000AD020E4D2E6801D51E4300E09E432E6053
:10177000641C102CFFF444AFBDE8F88F0004014056
:10178000000011100010024000000140000801405C
:10179000000C014000100140001401400C04014005
:1017A000C2684A40C26070470AB1016170470904CB
:1017B000FBE7000001488068704700000C00002033
:1017C0000248816802781144816070470C00002053
:1017D000074810B5016841F010010160032000F0D6
:1017E00079F80F2000F006F800F024F8002010BD72
:1017F0000020024070B50D4D04464FF47A712878F0
:10180000B1FBF0F00A490968B1FBF0F000F0BEFC52
:1018100048B9102C07D200222146501E00F03AF899
:1018200000206C6070BD012070BD00000C00002025
:10183000180000200F4808B5816941F0010181615D
:10184000816901F001010091C16941F08051C161DC
:10185000C069002200F0805000900F21901E00F01F
:1018600019F80548416821F0E06141F000714160DC
:1018700008BD0000001002400000014000F01F02FF
:10188000012191404009800000F1E020C0F80011E2
:1018900070470000F0B40E4B1B680C46C3F30223E4
:1018A000C3F10705042D00D90425191D072901D20C
:1018B000002300E0DB1E012606FA05F1491E214047
:1018C00099409E40761E16403143F0BC00F05ABF4E
:1018D0000CED00E0064900F0070208684FF6FF0330
:1018E000184040EA0220034A104308607047000095
:1018F0000CED00E00000FA052DE9F047DFF8548117
:1019000005460E46D8F8000000F00700B0420CD2A1
:10191000D8F8001021F007013143C8F80010D8F8BA
:10192000000000F00700B0426FD128684A4C8107E0
:1019300012D5400703D5606840F4E0606060287805
:10194000000703D5606840F4605060606068A96873
:1019500020F0F000084360602878C00744D0686831
:10196000012816D02168022816D0890700294CDAF0
:10197000616821F0030101436160FFF71BFF6968A3
:10198000074641F2883001290ED00229814618D03D
:1019900026E021688903E9E78901E7E7FFF70AFF05
:1019A000C11B494501D918E081466068C0F3810038
:1019B0000128F3D118E000BFFFF7FCFEC11B494529
:1019C0000BD86068C0F381000228F5D10CE000BF9D
:1019D000FFF7F0FEC11B494502D90320BDE8F0879F
:1019E000606810F00C0FF3D1D8F80010404601F0F9
:1019F0000701B1420BD9016821F0070131430160B1
:101A0000006800F00700B04201D00120E6E7287826
:101A1000400705D56068E96820F4E060084360602D
:101A20002878000706D56068296920F4605040EAEC
:101A3000C100606000F036F86168084AC1F3031124
:101A4000515CC840064908600F20FFF7D3FE002014
:101A5000C4E700000020024000100240B04400082B
:101A6000180000200448054900684968044AC1F389
:101A70000221515CC840704718000020001002404D
:101A8000C04400080448054900684968044AC1F395
:101A9000C221515CC840704718000020001002406D
:101AA000C0440008F0B524A289B00FCA04AC84E891
:101AB0000F0025A10FC98DE80F002748416801F0EC
:101AC0000C02042A04D0082A04D0244809B0F0BD2E
:101AD0002348FBE704AAC1F38343C903D45C28D598
:101AE000C16AC26A01F00F011DF80110D20316D5B8
:101AF000C26AC06AC2F30312521CA2FB0123C0F3E4
:101B00000320801CA0FB0415154F0026A1FB070C29
:101B100005FB07C501FB0651FEF782FB03E01048F9
:101B20006043B0FBF1F09DF81D10A142CED14008FA
:101B3000CCE70C486043C9E7000004050607080924
:101B400000000000000D0000010203040506070864
:101B5000090A0B0C0D0E0F100010024000127A0043
:101B6000001BB70000093D002DE9F84F044600783E
:101B7000EA4DC00748D06868C0F38100012807D04B
:101B80006868C0F38100022809D16868C00306D5DF
:101B90002868800338D5A06800286FD034E0A0689A
:101BA000B0F5803F0BD010B1B0F5A02F11D0286850
:101BB00020F480302860286820F4802002E0286823
:101BC00040F480302860A06888B1FFF7F3FD064636
:101BD00009E0286840F480202860F0E7FFF7EAFD7C
:101BE000801B642878D828688003F7D50CE0FFF7BD
:101BF000E1FD064605E000BFFFF7DCFD801B642821
:101C0000F0D828688003F7D42078C54E80074FF0BD
:101C100001094FF000073CD5686810F00C0F07D0A1
:101C20006868C0F38100022809D16868C00306D43F
:101C30002868800715D5606901281FD111E0606907
:101C4000B8B1C6F80090FFF7B5FD804606E000BFCA
:101C5000FFF7B0FDA0EB08000228C3D82868800772
:101C6000F6D52868A16920F0F80040EAC100286094
:101C70000FE03760FFF79EFD804607E02DE100BFD3
:101C8000FFF798FDA0EB08000228ABD82868800772
:101C9000F6D4207800072ED5A248E169E9B1C0F852
:101CA0000090FFF787FD804606E000BFFFF782FD4A
:101CB000A0EB0800022895D8686A8007F6D59A48F4
:101CC0004FF4FA510068B0FBF1F0009000BF0098AB
:101CD000411E0091FAD20EE0B0E00760FFF76AFD06
:101CE000804605E0FFF766FDA0EB0800022887D8D4
:101CF000686A8007F6D42078400763D5E8694FF01A
:101D00000008C00009D4E86940F08050E861E86943
:101D10004FF0010800F08050009084480168C90528
:101D200012D40168834641F480710160FFF742FDDF
:101D3000824605E0FFF73EFDA0EB0A0064287DD84F
:101D4000DBF80000C005F5D5206901280AD008B1EC
:101D5000052813D0286A20F001002862286A20F0A4
:101D6000040002E0286A40F001002862206941F284
:101D7000883B98B1FFF71EFD82460BE0286A40F0D1
:101D800004002862EEE700BFFFF714FDA0EB0A0194
:101D9000594553D8286A8007F6D50CE0FFF70AFDAD
:101DA000824605E0FFF706FDA0EB0A01594545D83C
:101DB000286A8007F6D4B8F1000F03D0E86920F054
:101DC0008050E861E06AD0B36968C90307D56968E3
:101DD000C1F38101022902D1E96AC9037DD4022835
:101DE00008D0E86A20F48030E862B766FFF7E2FCCA
:101DF00080463BE02868C00005D5E86A616B00F0CA
:101E0000F000884269D1B766FFF7D4FC804605E050
:101E1000FFF7D0FCA0EB0800642874D82868000104
:101E2000F6D4E86A616B20F0F0000843E862E86AE3
:101E3000216B20F470600843E86201E063E018E081
:101E4000C6F86890FFF7B6FC804605E0FFF7B2FCE5
:101E5000A0EB0800642856D828680001F6D508E0F1
:101E6000FFF7A8FCA0EB080064284CD82868000104
:101E7000F6D4206A90B36968C1F3810102294AD07F
:101E80000228376603D0FFF795FC04463EE0FFF7D3
:101E900091FC074605E000BFFFF78CFCC01B022841
:101EA00031D828688001F7D4606AB0F5803F09D145
:101EB000E86A61680843E862E86AE16820F00F00B8
:101EC0000843E862D4E909010843696821F4741100
:101ED00008436860C6F8609001E01CE019E0FFF775
:101EE00069FC044605E000BFFFF764FC001B022804
:101EF00009D828688001F7D50BE000BFFFF75AFC2E
:101F0000001B022802D90320BDE8F88F2868800151
:101F1000F4D40020F8E70120F6E7000000100240AA
:101F2000000042428004424218000020007000403D
:101F300070B5040005D00025A56294F8510010B1D9
:101F400004E0012070BD204600F034F8022084F83F
:101F500051002068016821F040010160D4E90101CD
:101F60000843D4E903121143084361690843218BF4
:101F700001F400710843E1690843216A0843A16A3A
:101F8000084321680860A069042101EA1040616AE1
:101F90000843216848602168E06A08612068C169D7
:101FA00021F40061C1616565012084F851000020C1
:101FB00070BD000000B585B0002100910191029133
:101FC000039100681349884221D11348816941F483
:101FD00080518161816901F480510491816941F0EE
:101FE000080181618069694600F00800049028209A
:101FF000009002200190032003900848FFF7F2FAB6
:102000000748416841F0E06141F00101416005B0DD
:1020100000BD00000030014000100240000C0140F3
:10202000000001402DE9F84F044690F850000026CA
:10203000994617460D4601280DD04FF0010B84F844
:1020400050B0FFF7B7FB804694F85100B246012824
:1020500004D0022694E00220BDE8F88F002D7BD04A
:10206000002F79D0032084F85100C4F854A02563D0
:10207000A786E786C4F838A0A4F83CA0A4F83EA040
:10208000C4F844A0C4F840A0A068B0F5004F04D143
:102090002068016841F480410160206801684906B8
:1020A00003D4016841F040010160E068B0F5006FC1
:1020B000606804D030B3E08E012823D03EE010B138
:1020C000E08E01281AD135F8021B206805E020684F
:1020D0008168890706D535F8021BC160E08E401E75
:1020E000E0860BE0B9F1000F34D0B9F1FF3F05D025
:1020F000FFF760FBA0EB080149452BD2E08E0028DA
:10210000E5D11EE0216815F8010B087306E0206890
:102110008168890706D515F8011B0173E08E401E02
:10212000E0860BE0B9F1000F14D0B9F1FF3F05D004
:10213000FFF740FBA0EB080149450BD2E08E0028D9
:10214000E5D14B46012202212046CDF8008000F067
:1021500039FB10B1032613E011E042464946204600
:1021600000F020FB18B101262020606508E0A0687F
:1021700018B92068C16880680090606D00B10126C0
:1021800084F851B084F850A0304665E710B5401E81
:10219000B0F1807F01D3012010BD4FF0E0246061D9
:1021A0000F21601700F0EEFA0020A06107202061E7
:1021B000002010BDF0B401680A68D20655D50A683F
:1021C0004968416B2B4B2B4A09687833914220D0E8
:1021D000284A1432914222D0264C52152834A1426A
:1021E0002AD0244D14013C35A94222D0214E15029B
:1021F0005036B1421FD01F4E6436B14201D1120396
:102200001AE0994202D14FF0007215E01A4EB14225
:1022100001D1022210E0184E1436B14201D1202221
:102220000AE0154E2836B14206D0134A3C3291429C
:1022300001D1224600E02A460C6824F001040C601B
:10224000416B0968994203D90B49091F0A6002E0F2
:10225000084908394A60426B818D12685160416BB0
:1022600009680A6842F001020A60816AF0BC03480A
:10227000FEF794BB08000240080402400419002045
:1022800070B5040004D094F83900002510B106E0C0
:10229000012070BD84F83850204600F023F8242037
:1022A00084F839002068C16821F40051C1602046DB
:1022B00000F094FB2068016921F4904101612068DD
:1022C000416921F02A0141612068C16841F400514F
:1022D000C160E563202084F8390084F83A000020CA
:1022E00070BD000070B586B0002400940194029483
:1022F00003940646394D0368394902200322AB4254
:1023000022D1CB6943F40033CB61CB6903F40033B2
:1023100004938B6943F004038B618969314D01F0AB
:10232000040104910421CDE9001003926946284676
:10233000FFF758F90820CDE90004694628460294C1
:10234000FFF750F906B070BD274DAB42FAD1CB690B
:1023500043F48023CB61CB6903F4802304938B691E
:1023600043F010038B618969039201F0100104911D
:102370002915CDE900101D4D69462846FFF732F9B1
:10238000E814CDE90004694628460294FFF72AF9CB
:102390001748416821F0300141F0E06141F010013F
:1023A0004160154D1348C5E900048020C5E902408D
:1023B0002C616C61AC612846EC61FFF79BF808B1B9
:1023C000FEF7B4FB75630022062127206E62FFF73B
:1023D00061FA2720FFF752FAB4E7000000440040FA
:1023E0000010024000080140004800400010014079
:1023F0000000014030000240F001002030B40368CA
:10240000DC6844F01004DC6030BC00F0ABBA2DE9AD
:10241000F843044690F839001F4616460D4620281A
:1024200050D1A5B19EB194F8380001284AD00120BE
:1024300084F838004FF00008C4F83C80212084F86C
:102440003900FFF7B7F9A6848146E68426E001202B
:10245000BDE8F883E08C401EE084A0684B46B0F5F0
:10246000805F4FF000024FF080012046009703D0BC
:1024700000F06CFBE8B90DE000F068FBC8B92888F3
:102480002168C0F308004860206908B16D1C05E0B0
:10249000AD1C03E0216815F8010B4860E08C0028B2
:1024A000D8D14B46002240212046009700F04EFB39
:1024B00008B10320CCE7202084F8390084F8388064
:1024C0000020C5E70220C3E7FEE700001CB51EA000
:1024D00000F076FB01F0B8F8002001F071F81F4D14
:1024E0001F4E204F00244FF07C584FF07F5900BF03
:1024F00004EB8400CDE9006500EBC40007EB80002D
:1025000000234246494601F0F4F9641CE4B2072C6A
:10251000EED301F023F84FF47A7001F069F900204E
:1025200001F04EF801F020F90F4D104C10A000F012
:1025300047FB01212846FFF733F9206801F0BCFD75
:10254000012001F055F9F1E7496E20496E6974697F
:10255000616C5F5461736B0D0A0000000060EA4615
:102560000000964334130020000C014000000020BE
:10257000496E20496E697469616C5F5461736B27A1
:1025800073206C6F6F700D0A000000000F4810B5CB
:102590000D4901600321416000214FF40032816048
:1025A000C0E903124FF4E002426101764176817680
:1025B000C17601774177FEF72AFD002803D0BDE8F8
:1025C0001040FEF7B3BA10BD00640040F0000020D8
:1025D000094808B5416941F00101416140690022A3
:1025E00000F00100009005210D20FFF753F9BDE830
:1025F00008400D20FFF742B90010024000B585B039
:10260000142207496846FDF74CFE0021684601F098
:1026100005F90449486004A000F0D2FA05B000BDF5
:102620007444000800000020416C6C205461736BFE
:10263000206973207265616479210D0A0000000031
:1026400030B585B000241C48009401940294039492
:10265000816941F020018161816901F020010491CB
:10266000816941F004018161816901F004010491F3
:10267000816941F008018161816901F008010491DB
:10268000816941F01001816180690C4D00F01000FA
:102690000490002253212846FFF786F8532000902B
:1026A0000120CDE901040220039069462846FEF787
:1026B00099FF05B030BD000000100240000C014041
:1026C000114810B50F4901604FF4827141604FF419
:1026D000004181600021C1604FF400720161C0E9D6
:1026E00005122022C0E90721416281620A21C162EC
:1026F000FFF71EFC002803D0BDE81040FEF716BA15
:1027000010BD000000300140180100200C4810B539
:102710000A4901604FF4E1314160002181600C22DF
:10272000C160C0E904128161C161FFF7A9FD002801
:1027300003D0BDE81040FEF7F9B910BD00440040D9
:10274000700100200C4810B50A4901600B49416036
:10275000002181600C22C160C0E904128161C16165
:10276000FFF78EFD002803D0BDE81040FEF7DEB96C
:1027700010BD000000480040B0010020A08601000C
:10278000FEE770470907090E002806DA00F00F007F
:1027900000F1E02080F8141D704700F1E02080F87F
:1027A0000014704738B50B46009204460022802181
:1027B00000F008F8002804D0606D40F0200060654B
:1027C000032038BD2DE9F0411D4617460E4604464C
:1027D000DDF8188035E0681C33D02DB1FEF7EAFF34
:1027E000A0EB0800A8422CD32068416821F0E0014A
:1027F00041606068B0F5827F0BD1A068B0F5004FF2
:1028000002D0B0F5806F04D12068016821F040014A
:102810000160A06AB0F5005F0AD1206801684DF63A
:10282000FF72114001602068016841F400510160AD
:10283000012084F85100002084F850000320BDE8F6
:10284000F0812068806836EA000004D00020B84299
:10285000C1D10020F3E70120F9E700008AB001F0C0
:1028600009FB14220E496846FDF71BFD002168464E
:1028700000F0D4FF0B4C0A4914222060143105A843
:10288000FDF70FFD002105A800F0C8FFA0606068FB
:1028900001F088FB01F00EFB012000F0A9FFFBE72F
:1028A000884400080000002010B5FEF789FFBDE84D
:1028B000104000F0A9BF000070B594B03821684600
:1028C000FDF708FD14210EA8FDF704FD01250024E5
:1028D0002804CDE902040226CDE90860009505959B
:1028E00001940001CDE90A046846FFF73DF90F2085
:1028F000CDE90E06A802CDE9104002210EA81294DF
:10290000FEF7FAFF0148056714B070BD00004242AF
:102910001048016841F00101016041680E4A114010
:10292000416001680D4A11400160016821F4802175
:102930000160416821F4FE014160016821F0A0516D
:1029400001604FF47F0181600021C1620449C0032E
:1029500008607047001002400000FFF0FFFFF6FE25
:1029600008ED00E0F8B5044690F83A00202833D18D
:1029700079B372B394F8380001282DD0012084F87F
:102980003800A162A2850025E563222084F83A0080
:10299000606B134645630846666B21680246304605
:1029A000091DFEF7E5FD206801684168009184F883
:1029B0003850C16841F48071C1602068416941F0BC
:1029C000010141612068416941F0400141610020FD
:1029D000F8BDFFE70120FBE70220F9E72DE9F04110
:1029E000044600680169E26821F440511143016125
:1029F0002169A0680843616908432168CA6841F2F7
:102A00000C639A430243CA6020684169A26921F4B9
:102A10004071114341614C49206864253226884247
:102A20003CD1FFF72FF800EBC00101EB001061680B
:102A30008900B0FBF1F7FFF725F800EBC00101EBCF
:102A400000106168B0468900B0FBF1F0B0FBF5F012
:102A50006FF01801484307EB800106EB0110B0FB53
:102A6000F5F000F0F006FFF70DF800EBC00101EB08
:102A7000001061688900B0FBF1F0B0FBF5F006EBE7
:102A80000016FEF7FFFF00EBC00101EB00106168CC
:102A90008900B0FBF1F7FEF7F5FF3BE0FEF7E2FF40
:102AA00000EBC00101EB001061688900B0FBF1F799
:102AB000FEF7D8FF00EBC00101EB00106168B046E3
:102AC0008900B0FBF1F0B0FBF5F06FF0180148435E
:102AD00007EB800106EB0110B0FBF5F000F0F0060B
:102AE000FEF7C0FF00EBC00101EB00106168890038
:102AF000B0FBF1F0B0FBF5F006EB0016FEF7B2FF0D
:102B000000EBC00101EB001061688900B0FBF1F738
:102B1000FEF7A8FF00EBC00101EB0010616889001F
:102B2000B0FBF1F0B0FBF5F06FF01801484307EB94
:102B3000800108EB0110B0FBF5F0216800F00F00F8
:102B400030448860BDE8F081003801402DE9F04153
:102B5000984617460E460446069D1DE0681C1BD08D
:102B60002DB1FEF727FEA0EB0800A84214D920687B
:102B7000C16821F4D071C1602068416921F0010170
:102B80004161202084F8390084F83A00002084F85C
:102B900038000320BDE8F0812068006836EA0000B4
:102BA00004D00020B842D9D00020F3E70120F9E793
:102BB0000148FFF7FFBA0000B0010020FEE7000067
:102BC0000FB4054B10B503A9044A029800F0DAF8D7
:102BD00010BC5DF814FB0000F1340008EC0000208C
:102BE00002E008C8121F08C1002AFAD170477047D6
:102BF000002001E001C1121F002AFBD17047000034
:102C00002DE9FF5F82B00021DDE90430020DDDF81F
:102C100040B0034318D044F61050A2F2FF324243B2
:102C20001514119801281FD0A5EB0B00401C5FEA7A
:102C3000000A4FF000064E4FDFF83891B04650467C
:102C400015D5CAF1000413E0119801244AA3012804
:102C500001D16FEA0B010298119AC0E90031C0E975
:102C6000024206B0BDE8F09FCBF10000DFE704466A
:102C70000021404A491842EB0450CDE9001012E00F
:102C8000E00707D032463B4640464946FDF7E7FCA1
:102C90008046894632463B4610461946FDF7DFFC22
:102CA00006460F466410002CEAD1DDE90401DDE997
:102CB0000023BAF1000F06DAFDF7D1FC42464B467D
:102CC000FDF7CDFC05E0FDF73CFD42464B46FDF728
:102CD00038FD04460E460022284BFDF7B9FD03D807
:102CE0004FF0FF30014607E00022254B20463146D9
:102CF000FDF70EFCFDF794FD102409E0002C0ADB23
:102D00000A220023FDF78CFA039B30321A55641E09
:102D100050EA0102F2D1641C039AC4F11103144475
:102D2000119A012A03D0012208430DD10AE0084379
:102D300004D000204FF0110B119072E7A3EB0B05AC
:102D40006D1E0DE05B4504DD4FF0000205F101054D
:102D500004E003DA4FF00002A5F10105002AECD0EF
:102D600002981199C0E90231C0E9004579E70000F5
:102D7000000014400000F03F300000000000F0436D
:102D80000000E03F2DE9FF4F95B09B46894606467F
:102D900000250FE2252877D100242746F84A012193
:102DA000059400E0044316F8013F203B01FA03F0CC
:102DB0001042F7D130782A2811D06FF02F033078E5
:102DC000A0F13002092A16D8059A44F0020402EB59
:102DD000820203EB42021044761C0590EFE759F89B
:102DE000042B0592002A03DA504244F40054059063
:102DF00044F00204761C30782E2816D116F8010F04
:102E000044F004042A280DD06FF02F023078A0F18E
:102E10003003092B09D807EB870302EB4303C718DC
:102E2000761CF3E759F8047B761C30786C280FD0B9
:102E300006DC4C2817D068280DD06A2814D104E08D
:102E4000742810D07A280FD10DE044F400140AE061
:102E500044F4801401E044F440147278824202D1B8
:102E600004F58014761C761C307866280BD013DCB1
:102E7000582877D009DC002875D04528F6D0462898
:102E8000F4D047281AD19DE118E0632835D0642892
:102E900079D0652812D195E1702873D008DC6728B5
:102EA000F1D069286FD06E280DD06F2806D1B5E01B
:102EB00073282CD0752875D0782874D05A46179965
:102EC00090476D1C75E1C4F30250022809D0032815
:102ED0000DD0D9F8001004280DD00D6009F10409B7
:102EE00067E1D9F80010EA17C1E90052F6E7D9F80E
:102EF00000100D80F2E70D70F0E719F8041B8DF853
:102F0000001000208DF80100EA46012003E059F886
:102F100004AB4FF0FF3061074FF0000102D40DE029
:102F200008F101018846B9420FDA8045F8DB1AF84A
:102F300008100029F4D108E008F101018846814217
:102F4000FADB1AF808100029F6D105985B46A0EBC9
:102F5000080721463846179A00F094FA284400EBF7
:102F6000080507E04DE029E10DE01AF8010B5A468B
:102F700017999047B8F10108F7D25B4621463846C9
:102F8000179A13E142E00A220092C4F302524FF072
:102F9000000A022A08D059F804CB032A4FEAEC7140
:102FA0000AD00DE029E02AE009F1070121F007022B
:102FB000F2E802C1914609E00FFA8CFC4FEAEC718D
:102FC000042A03D14FFA8CFC4FEAEC71002907DA8E
:102FD0000A460021DCF1000C61EB02012D2202E027
:102FE000220504D52B228DF80420012203E0E207FC
:102FF00001D02022F7E7904659E00A2102E0102292
:103000000DE010214FF0000A00910BE010224FF06C
:10301000000A44F004040827009203E008224FF05D
:10302000000A0092C4F30252022A05D059F804CBD8
:103030000021032A08D009E009F1070121F0070265
:10304000F2E802C1914605E01FFA8CFC042A01D186
:103050000CF0FF0C4FF00008220728D5702806D08E
:10306000009B83F0100353EA0A0305D00EE04022D0
:103070008DF80420012208E05CEA010206D030222B
:103080008DF804208DF8050002229046009B83F005
:10309000080353EA0A030AD15CEA010201D162077C
:1030A00005D530228DF804204FF001087F1E5828E6
:1030B00004D034A003900EA802900DE036A0F9E7EA
:1030C00053466046009AFDF7ABF884460398825C4D
:1030D0000298401E029002705CEA0100F0D1029852
:1030E00006A9081A00F1200A600702D524F48034EA
:1030F00000E00127574502DDA7EB0A0000E00020B1
:1031000000EB0A01009005984144401A0590E00345
:1031100006D45B462146179A059800F0B3F905449A
:10312000002706E001A85A46C05D179990476D1C1C
:103130007F1C4745F6DBE0030CD55B462146179A1A
:10314000059800F09FF9054404E030205A4617998D
:1031500090476D1C0099481E00900029F5DC08E09E
:10316000029802995A460078491C02911799904793
:103170006D1CBAF10001AAF1010AF1DC65E1000061
:10318000092801003031323334353637383961623D
:103190006364656600000000303132333435363701
:1031A00038394142434445460000000000F058F9D8
:1031B0000544761C307800287FF4ECAD19B0284621
:1031C000BDE8F08F620700D4062709F1070222F05C
:1031D000070CFCE80223E14603F000485FEA080C14
:1031E00002D00FF2702C0DE05FEA045C02D50FF202
:1031F000682C07E05FEAC47C02D00FF2602C01E08B
:10320000AFF2700C4FF0FF3823F00043CDF850C000
:1032100065280CD006DC452809D046281DD0472853
:103220003DD13DE0662818D067287ED138E00021E6
:10323000112F01DB112000E0781CCDE9000106A967
:103240000EA8FFF7DDFCDDE90F010E9A03910021C6
:10325000009207F1010A04914DE04FF00040009701
:10326000CDE9011006A90EA8FFF7CAFCDDE90F029F
:1032700003920E9B11990022DDF80CA0009304929A
:1032800011B9791C00EB010AB7EB0A0004D4C0F1B4
:10329000FF3007F1010A0490AAEB0700019044E017
:1032A000012F00DA01270021112F01DD112000E09C
:1032B0003846CDE9000106A90EA8FFF7A1FCDDE91B
:1032C0000F010E9A0391002104910092BA46210742
:1032D0000CD40399514500DA8A46BAF1010F05DD95
:1032E000009AAAF10101515C302908D0B84202DAF3
:1032F00010F1040F06DA0121CDE9011015E0AAF161
:103300000101E9E7002805DC049901440491AAEBD6
:10331000000102E0411C514500DD8A460499401A33
:10332000401C01904FF000400290200704D4019807
:10333000504501DBCDF8048000208DF84F00029845
:103340000DF14F07B0F1004F25D02B200E900298C1
:103350004FF0020800280CDA404202902D200E9017
:1033600007E00A210298FDF777F83031029007F85C
:10337000011DB8F10001A8F10108F2DC0298002853
:10338000EFD1791E0E980870307800F0200040F0E0
:10339000450007F8020D12A8C01B00F10708149899
:1033A000007800B1012000EB0A01019801EBE07107
:1033B00005984144401A401E0590E00306D45B4640
:1033C0002146179A059800F05DF805441498007896
:1033D00018B15A46179990476D1CE00324D55B46F7
:1033E0002146179A059800F04DF805441CE0049812
:1033F000002807DBDDE90301884203DD0098405C1B
:10340000179901E0179930205A469047049805F122
:103410000105401C04900198401E019004D12E200B
:103420005A46179990476D1CBAF10001AAF1010A9A
:10343000DDDC05E017F8010B5A46179990476D1C23
:10344000B8F10001A8F10108F4DC5B462146179AA7
:103450000598ABE62D0000002B00000020000000C6
:103460002DE9F041044600251E461746880404D481
:1034700005E039462020B0476D1C641EF9D528466A
:10348000BDE8F0812DE9F041044600251E46904636
:10349000C80301D5302700E02027880404D505E0C3
:1034A00041463846B0476D1C641EF9D52846BDE834
:1034B000F081000000B58BB000210122CDE9061299
:1034C0000591009101910291039104910E21CDE9A2
:1034D00008216946FDF7A2FB0448FDF7B3FE02216F
:1034E0000248FDF724FB0BB000BD0000F0000020F7
:1034F00013B54FF6FF73012269460248FEF787FFB6
:1035000000981CBD70010020FEF762F9FFF7D4F9A6
:10351000FFF796F8FFF75CF8FFF7D2F8FFF7F6F839
:10352000FFF710F9FFF732F80648FFF7C3FF6422F0
:1035300005490648FEF762FFFFF760F800F05FF903
:10354000FEE70000F0000020A0180020B0010020DD
:1035500001460020842900D0C81C70472DE9F0479F
:10356000002000F02DF8DFF8549000245FF00006F2
:1035700009EBC60000EBD400002507784FFA86F867
:10358000380604EB050041B201D5012200E000221B
:10359000404600F035F878066D1C070EEDB2082D98
:1035A000EED3761CF6B2802EE2D30834E4B2402C7F
:1035B000DCD3BDE8F04700F0D7B800003C49000874
:1035C000F0B500210D4BFF260C46002201280FD03C
:1035D00003EBC20580B16F5CC7F1FF076F54521C4B
:1035E000D2B2802AF2D3491CC9B20829EDD3F0BD6A
:1035F00003EBC2056E54F2E76C54F0E7A014002010
:1036000070B5802817D2002915DB3F2913DCCB17B2
:1036100001EB5375C5F3C70325F007050124094ED7
:10362000491B8C4006EBC000012A05D0C15C022A70
:1036300005D0A143C15470BDC15C2143FAE761408C
:10364000F8E70000A014002010B5464C00224021ED
:103650002046FEF7A9F84FF4FA70FDF7B1FF0122FA
:1036600040212046FEF7A0F80021AE2000F0ACF883
:103670000021084600F0A8F80021102000F0A4F86E
:103680000021402000F0A0F80021812000F09CF8EB
:103690000021CF2000F098F80021A12000F094F83C
:1036A0000021C82000F090F80021A62000F08CF83E
:1036B0000021A82000F088F800213F2000F084F8C5
:1036C0000021D32000F080F80021084600F07CF8AB
:1036D0000021D52000F078F80021802000F074F857
:1036E0000021D92000F070F80021F12000F06CF8E2
:1036F0000021DA2000F068F80021122000F064F8C0
:103700000021DB2000F060F80021402000F05CF890
:103710000021202000F058F80021022000F054F889
:1037200000218D2000F050F80021142000F04CF80A
:103730000021A42000F048F80021A62000F044F861
:103740000021AF2000F040F80021AF2000F03CF84D
:103750000020FFF735FF0021BDE81040084600F0CB
:103760001DB80000000C014070B50B4E002421462E
:10377000002000F013F8002506EBC5000121005DD4
:1037800000F022F86D1CEDB2802DF5D3641CE4B27C
:10379000082CECD370BD0000A014002010B5801CD4
:1037A000C4B2B031C8B2002100F00EF8102040EAD7
:1037B0001410002100F008F804F0F000BDE81040FB
:1037C000002100F001B8000013B5074809B101223B
:1037D00000E000221021FDF7E7FF0A2301226946DD
:1037E0000248FEF71FFC1CBD000C01401801002020
:1037F00010B500B9012000F0AFFB002010BD10B5DE
:1038000000F026FC002010BD10B500F05FFD01287F
:1038100003D0BDE8104000F017BD10BD3EB5044612
:103820000D46B0F90800FFF793FE02A9CDE90001AB
:10383000208A2B4682B2D4E9001000F01BFD01283B
:1038400001D000203EBD02983EBD2DE9F041044666
:103850000846C4E90502E56911462562FCF797FDB3
:103860000746E06139462068FCF797FD60623946FB
:103870006068FCF792FDA16AFCF737FD0646A0627E
:103880003946A068FCF789FD2946FCF780FDE06217
:10389000E068314680F00040FCF7D4FD03D8E068D2
:1038A00080F0004107E0E168A06AFCF7CBFD01D899
:1038B000E16800E0A16AA162606AFCF716FDE16AB6
:1038C000FCF713FD01462063206980F00040FCF7FF
:1038D000B9FD03D8206980F0004007E02169206B22
:1038E000FCF7B0FD01D8206900E0206B2063BDE843
:1038F000F08130B5DDE9034580E83E0030BD0000D1
:103900002DE9F041184C0F460546E6682068001D79
:1039100000F06CFA38B9206890F82C10012088402B
:10392000216981432161681C07D137B12168BDE855
:10393000F0410E48091D00F091BA20683544B542A7
:103940004560216805D2A06BBDE8F041091D00F07B
:103950006DBA606B091D00F069FAA06A854200D259
:10396000A562BDE8F08100001C00002010030020CB
:103970002DE9F041054600F07DFA2E4CA068401C70
:10398000A06020682C4F10B1606940B32DE0256025
:10399000A068012829D1002606EB860007EB8000ED
:1039A00000F036FA761C072EF6D323488C3000F050
:1039B0002FFA2148A03000F02BFA1F48B43000F055
:1039C00027FA1D48C83000F023FA1B48DC3000F00D
:1039D0001FFA19488C3060631430A06305E020683A
:1039E000E96AC06A884200D82560606A401C60624B
:1039F000E96A0120226988401043206101EB8100BF
:103A000007EB8000291D00F029FA00F053FA6069E5
:103A100000280CD02068E96AC06A884207D20749AA
:103A20004FF080500860BFF34F8FBFF36F8FBDE83A
:103A3000F08100001C0000203402002004ED00E0B2
:103A400070B5114E114C17E000F08EFB3068B8B124
:103A500000F0AEFC00F00EFAF068C568281D00F01A
:103A6000C5F9A068401EA0606068401E606000F05C
:103A700021FA284600F00CF860680028E4D170BDF7
:103A800000F096FCF8E70000FC0200201C0000207B
:103A900010B50446006B00F021FA2046BDE8104046
:103AA00000F01CBA10484FF48051420706D0C01DE8
:103AB0000D4920F00700411AC1F580510B4A00233F
:103AC0000144C2E900030839103A21F007011160EE
:103AD0004B600B600B1AC0E9001393604FF000407D
:103AE0005360D0607047000024030020680000206D
:103AF000074C4FF08056074DFFF7A2FF20680128C2
:103B0000FAD92E60BFF34F8FBFF36F8FF4E7000039
:103B10003402002004ED00E02DE9F0479A46DDE98B
:103B2000098481466FF00303206B03EB820210448B
:103B3000089D20F00706700707D0502080F31188F9
:103B4000BFF34F8FBFF36F8FFEE723180A5C83F834
:103B500034200A5C12B1401C1028F6D3002784F8E8
:103B60004370072D00D30625E562C4E91157201DD7
:103B700000F059F904F1180000F055F92461C5F17D
:103B800007006462A061E76484F8507052464946B9
:103B9000304600F0BFF82060B8F1000F01D0C8F83F
:103BA0000040BDE8F087000030B5114900E0114643
:103BB0000A688242FBD34B685C18844203D1406898
:103BC00018444860084643681C18944209D1084CC0
:103BD000103C2468A24209D052681A4442600A6824
:103BE00012680260814200D0086030BD0460F9E7CD
:103BF000680000200648416B096829B1416BC9681B
:103C0000C9684968816270474FF0FF31FAE70000E8
:103C10001C00002008484068401C4FF0500080F312
:103C2000118804D0BFF34F8FBFF36F8FFEE7BFF350
:103C30004F8FBFF36F8FFEE7700000202DE9F0413A
:103C40000546002700F090FA314E306808B9FFF7BA
:103C500029FFF06805424BD1C5B3083568070ED07F
:103C600005F00700C0F108000544680707D05020A0
:103C700080F31188BFF34F8FBFF36F8FFEE72DB333
:103C80007068854234D82248103001460C6801E043
:103C900020460C466168A94202D221680029F7D16A
:103CA00031688C4224D00768216801606068083759
:103CB000411B10290FD96019420708D0502080F30A
:103CC0001188BFF34F8FBFF36F8FFEE710E04160A5
:103CD0006560FFF769FF61687068401A7060B268DC
:103CE000904200D2B060F06801430020C4E90001B6
:103CF00000F05EFB780707D0502080F31188BFF3F7
:103D00004F8FBFF36F8FFEE73846BDE8F0810000AC
:103D10005800002010B5031F4FF080741C601B1F5B
:103D200021F001011960191F024B0B601439403852
:103D30000A6010BD153C000801B50A23012269463E
:103D40000148FEF764FB08BD7001002010B588B083
:103D50000A9C18B340F2FF200290002004900590C6
:103D600008200690080A8DF800008DF80110100A4E
:103D70008DF80200180A8DF804008DF80530200A2D
:103D80008DF806008DF803208DF8074002236A465F
:103D900002A90448FCF7DDFE08B010BD40F2FF1098
:103DA000DAE70000F000002070B50320FFF7C4FF41
:103DB000FC20FFF7C1FF0C4D002400BF15F81400D4
:103DC000FFF7BAFF35F81400C0F30720FFF7B4FF80
:103DD000641CE4B2082CF1D3FC20FFF7ADFFBDE872
:103DE00070400320FFF7A8BF24130020D0E9013260
:103DF00001699A60D0E901235A604A68824201D180
:103E000082684A60002202610868401E08607047AC
:103E100000F108014FF0FF32C0E90112C1600161F9
:103E200000210160704700210161704730B50B68C7
:103E30005A1C02D000F1080202E0026904E02246A6
:103E4000546825689D42FAD953684B6099608A602E
:103E5000516008610168491C016030BD42684A60D8
:103E600093688B6093685960916008610168491C90
:103E700001607047502080F31188BFF34F8FBFF36C
:103E80006F8F0A494868401C486001280CD10848D7
:103E9000006810F0FF0F07D0502080F31188BFF3A7
:103EA0004F8FBFF36F8FFEE7704700007000002058
:103EB00004ED00E00849486828B1401E486001D17F
:103EC00080F311887047502080F31188BFF34F8F23
:103ED000BFF36F8FFEE700007000002070B5002870
:103EE00027D0144DA0F108046168E868014207D1A9
:103EF000502080F31188BFF34F8FBFF36F8FFEE721
:103F000022683AB1502080F31188BFF34F8FBFF37E
:103F10006F8FFEE78143616000F026F96068696891
:103F2000084468602046FFF73FFEBDE8704000F09F
:103F30003FBA70BD5800002006484FF47A710068FF
:103F4000B0FBF1F14FF0E020491E41610721016112
:103F5000704700001800002010B5020014D00F4870
:103F6000006B38B1502080F31188BFF34F8FBFF33F
:103F70006F8FFEE700F0F8F800211046FFF7C0FC55
:103F800000F016FA002807D105494FF0805008606C
:103F9000BFF34F8FBFF36F8F10BD00001C000020D8
:103FA00004ED00E070B50546FFF764FF254C05B948
:103FB0002568281DFFF71AFF58B9E86A224A00EB66
:103FC000800152F8211021B90121814020698843E4
:103FD0002061A86A18B105F11800FFF707FF606AB1
:103FE000401C60622068854208D11748291DC830EE
:103FF000FFF734FF6068401C606007E0A068401E67
:10400000A0602846FFF744FDFFF7F4FDFFF752FFDD
:104010006069002814D02068854211D1206B38B126
:10402000502080F31188BFF34F8FBFF36F8FFEE7EF
:1040300006494FF080500860BFF34F8FBFF36F8F7A
:1040400070BD00001C0000203402002004ED00E0E0
:104050001CB515480024CDE900402346802213A159
:10406000144800F007F9012809D0401C1AD150204B
:1040700080F31188BFF34F8FBFF36F8FFEE750209F
:1040800080F31188BFF34F8FBFF36F8F06484FF057
:10409000FF312C38816201214161C460BDE81C40C0
:1040A00000F098B81CBD00004800002049444C4571
:1040B00000000000F13A000870B50446FFF7DAFE90
:1040C000264D04B92C68201DFFF790FE58B9E06A10
:1040D000234A00EB800152F8211021B901218140CF
:1040E000286988432861A06A18B104F11800FFF715
:1040F0007DFE1B48211DDC30FFF7B0FEFFF7DAFE26
:10410000686928B1FFF7B6FEFFF774FDFFF7D2FE2E
:104110002868844213D1686990B1286B38B1502067
:1041200080F31188BFF34F8FBFF36F8FFEE70D4908
:104130004FF080500860BFF34F8FBFF36F8F70BD9B
:104140000748A968DC300068884202D10020286056
:1041500070BDBDE8704000F00FB800001C000020EA
:104160003402002004ED00E00248016B491C0163A9
:10417000704700001C0000201448016B11B10121A0
:10418000C16170470021C1610169B1FA81F1C1F1DA
:104190001F0101EB81020E4951F822306BB101EB96
:1041A000820101F108034A6852684A609A4201D1CB
:1041B00052684A60D16801607047502080F31188CE
:1041C000BFF34F8FBFF36F8FFEE700001C0000208E
:1041D000340200201CB5194908780190FF200870AE
:1041E00008788DF800009DF80000154A00F0500096
:1041F00010700720906005E09DF800305B008DF89E
:104200000030401E9DF800301B06F5D4000200F47B
:10421000E0609060019808700A48016841F47001FC
:104220000160016841F070410160FFF785FE0020E8
:104230005060FBF7A9FF00201CBD000000E400E077
:104240007000002020ED00E010B5502080F31188B0
:10425000BFF34F8FBFF36F8F00F046F818B10449DA
:104260004FF080500860002080F3118810BD0000DE
:1042700004ED00E02DE9FF5F8346DDE90E879946F6
:1042800016468A469000FFF7D9FC05001AD0542044
:10429000FFF7D4FC040012D025630021CDE90241D0
:1042A000CDE900874B46324651465846FFF734FC6D
:1042B0002046FFF75DFB012004B0BDE8F09F2846D3
:1042C000FFF70CFE4FF0FF30F6E7000005484169AC
:1042D00019B1006B18B1002070470120704702200F
:1042E000704700001C0000202DE9F0412E4C0027F3
:1042F000206B40B1A069401CA061E06900B10127BA
:104300003846BDE8F081E668761CE66013D1606B44
:10431000006838B1502080F31188BFF34F8FBFF38E
:104320006F8FFEE7606BA16B6163A063206A401C26
:104330002062FFF75FFCA06ADFF87080864209D335
:10434000606B006880B1606BC068C5686868864251
:104350000DD2A0622068C06A00EB800158F82100ED
:104360000128CAD90127C8E74FF0FF30F1E7281D1F
:10437000FFF73CFDA86A18B105F11800FFF736FDFC
:10438000E86A0121226981401143216100EB80012B
:1043900008EB8100291DFFF761FDE86A2168C96A01
:1043A0008842CDD30127CBE71C0000203402002037
:1043B0002DE9F0472C4D00242746286B38B1FFF734
:1043C00059FD286B401E2863286B40B146E0502001
:1043D00080F31188BFF34F8FBFF36F8FFEE7A9689B
:1043E000224E0120D1B3A6F1B40980463068E8B16D
:1043F000F068C46804F11800FFF7F8FC201DFFF70F
:10440000F5FCE06A2A6908FA00F11143296100EB22
:10441000800109EB8100211DFFF720FDE06A29687A
:10442000C96A8842E2D3C5F81C80DFE70CB1FFF708
:10443000E1FBAC6944B14646FFF756FF00B1EE61BF
:10444000641EF9D10020A861E86938B10849012744
:1044500038070860BFF34F8FBFF36F8FFFF72AFD58
:104460003846BDE8F08700001C000020E80200206C
:1044700004ED00E05C4D00085D280008FEFF000030
:1044800000000000800000003C4D0008CD24000822
:104490000200000000000000800000004C4D0008F9
:1044A000310A000801000000000000008000000048
:1044B00000000000000000000102030406070809D4
:1044C00000000000010203040000000000000000E2
:1044D00000000000000000003F400000000000005D
:1044E00000003000400030004000000009000BC018
:1044F0003D000BC03D00090018C024407FE0224071
:1045000031800000180024C01B000D803240018063
:1045100003801C4027401C800740004010006000C2
:1045200000000000000000000000000000001F80EC
:10453000204040200000402020401F80000000005C
:10454000090006001F8006000900000004000400A6
:104550003F80040004000000001000600000000024
:104560000000000004000400040004000400000037
:10457000000000400000000000000000002001C01A
:1045800006003800400000001F80204020402040EE
:104590001F800000000010403FC0004000000000ED
:1045A00018C02140224024401840000010802040C4
:1045B000244024401B80000002000D0011003FC079
:1045C000014000003C80244024402440238000001F
:1045D0001F8024402440344003800000300020002D
:1045E00027C03800200000001B80244024402440C5
:1045F0001B8000001C0022C0224022401F800000BF
:104600000000000008400000000000000000000062
:104610000460000000000000000004000A00110017
:10462000208040400900090009000900090000003D
:1046300000004040208011000A0004001800200003
:1046400023402400180000001F80204027402940FC
:104650001F400000004007C039000F0001C00040AB
:1046600020403FC0244024401B8000001F80204089
:10467000204020403080000020403FC020402040AB
:104680001F80000020403FC024402E4030C000006A
:1046900020403FC024402E00300000000F0010805A
:1046A000204022403380020020403FC0040004002C
:1046B0003FC02040204020403FC02040204000001C
:1046C0000060202020203FC02000200020403FC06C
:1046D00024400B0030C0204020403FC0204000401C
:1046E000004000C03FC03C0003C03C003FC0000091
:1046F00020403FC00C4023003FC020001F802040CE
:10470000204020401F80000020403FC02440240063
:10471000180000001F802140214020E01FA0000061
:1047200020403FC02440260019C0004018C024404B
:104730002440224031800000300020403FC0204013
:104740003000000020003F80004000403F802000FB
:1047500020003E0001C0070038002000380007C0DC
:104760003C0007C038000000204039C0060039C0B6
:10477000204000002000384007C0384020000000E2
:10478000304021C02640384020C00000000000001A
:104790007FE0402040200000000070000C000380FB
:1047A000004000000000402040207FE000000000AA
:1047B0000000200040002000000000000010001059
:1047C0000010001000100010000000004000000069
:1047D00000000000000002800540054003C00040CA
:1047E00020003FC00440044003800000000003801C
:1047F00004400440064000000000038004402440C0
:104800003FC0004000000380054005400340000019
:10481000000004401FC0244024402000000002E0AB
:10482000055005500650042020403FC004400400BD
:1048300003C000400000044027C00040000000000A
:1048400000100010041027E00000000020403FC0CE
:104850000140070004C00440204020403FC0004009
:104860000040000007C0040007C0040003C00000AF
:10487000044007C00440040003C00040000003805F
:104880000440044003800000041007F0045004407A
:1048900003800000000003800440045007F0001073
:1048A000044007C00240040004000000000006406D
:1048B0000540054004C00000000004001F800440C3
:1048C00000400000040007800040044007C0004092
:1048D0000400070004C0018006000400060001C0B7
:1048E000070001C006000000044006C0010006C029
:1048F000044000000410071004E0018006000400DA
:104900000000044005C00640044000000000000014
:1049100004007BE040200000000000000000FFF0E9
:1049200000000000000040207BE0040000000000C8
:1049300040008000400020002000400000000000F7
:104940000000000000000000000000000000000067
:104950000000000000000000000000000000000057
:104960000000000000000000000000000000000047
:104970000000000000000000000000000000000037
:1049800000000006000000000000001E0000000003
:10499000000000DE00000000000000D80000000061
:1049A000000000D800000000000000D80000000057
:1049B000000000DE00000000000000FE000000001B
:1049C000000000F60000000000000072000000007F
:1049D00000000000000000000000007C000000005B
:1049E000000000FE00000000000000C60000000003
:1049F000000000C600000000000000C6000000002B
:104A0000000000FE000000000000007C000000002C
:104A100000000000000000000000001E0000000078
:104A2000000000DE00000000000000D600000000D2
:104A3000000000D600000000000000D600000000CA
:104A4000000000D600000000000000DE4000000072
:104A5000000000FE600000000010006C700000000C
:104A6000003000007800000000F0007C7C000000B6
:104A700007F000FE7E0000003FF000C67F0000014E
:104A8000FFF000C67F80000FFFF000C67FC0007FF0
:104A9000FFF000FE7FE003FFFFF0007C7FF03FFFB0
:104AA000FFF000027FF83FFFFFF000067FFC3FFFB2
:104AB000FFF0001E7FFE3FFFFFF000BC7FFF3FFFC7
:104AC000FFF000E07FFFBFFFFF8000F87FFFFFFFE8
:104AD000FC00003E7FFFFFFFE000000E7FFFFFFFB6
:104AE000000000B87FFFFFF8000000E07FFFFFF04C
:104AF000000000FE7FFFFFF00000001E7FFFFFF0C0
:104B0000000000027FFFFFF0000000007FEFFFF0D9
:104B1000020000067FE7FFF00200000E7FE3FFF0D7
:104B20000200001C7FE1FFF8030000BA7FE0FFFCF9
:104B3000030000F67FE07FFE038000E67FE03FFF9A
:104B4000038000F67FE03FFF83C0003E7FE03FFF31
:104B5000C3C0000E7FE03FFFE3E000027FE03FFFC5
:104B6000F3E000007FE03FFFFBF000027FE03FFF4B
:104B7000FFF000667FE03FFFFFF800F67FE03FFFB9
:104B8000FFF800D67FE03FFFFFFC00D67FF07FFFFD
:104B9000FFFC00D67FF8FFF7FFFE00D67FFFFFF394
:104BA000FFFE00DE3FFFFFE1FFFF008C3FFFFFE065
:104BB000FFCF00401FFFFFC07FC780C01FFFFFC0A7
:104BC0003FC380C00FFFFF801FC1C0FE07FFFF0073
:104BD0000FC0C0FE03FFFE0007C060C001FFFC0065
:104BE00003C020C0007FF00001C00086000F8000DD
:104BF00000C0001600000000004000D600000000C9
:104C0000000000D600000000000000D600000000F8
:104C1000000000D600000000000000D600000000E8
:104C2000000000D000000000000000C000000000F4
:104C300000000006000000000000001E0000000050
:104C4000000000DE00000000000000D800000000AE
:104C5000000000D800000000000000D800000000A4
:104C6000000000DE00000000000000DE0000000088
:104C7000000000F6000000000000007200000000CC
:104C800000000000000000000000006200000000C2
:104C9000000000F600000000000000F60000000028
:104CA000000000D600000000000000D60000000058
:104CB000000000D600000000000000DE0000000040
:104CC0000000008C00000000000000000000000058
:104CD00000000000000000000000000000000000D4
:104CE00000000000000000000000000000000000C4
:104CF00000000000000000000000000000000000B4
:104D000000000000000000000000000000000000A3
:104D10000000000000000000000000000000000093
:104D20000000000000000000000000000000000083
:104D300000000000000000000000000076496E69DD
:104D40007469616C5F5461736B0000007643686145
:104D5000737369735F5461736B0000007653746101
:104D600072745461736B0000884D000800000020CD
:104D7000F0000000E02B0008784E0008F000002052
:104D8000281C0000F02B00080000000000000000BC
:104D90000000000001000000100000000000000002
:104DA00000A24A0400000000000000000000000013
:104DB00000000000000000000000000000000000F3
:104DC00000000000000000000000000000000000E3
:104DD00000000000000000000000000000000000D3
:104DE00000000000000000000000000000000000C3
:104DF000000000000000000000000000AAAAAAAA0B
:104E000000000000000000000000000000000000A2
:104E10000000001000000000000000000000000082
:104E20000000000000000000000000000000000082
:104E30000000000000000000000000000000000072
:104E40000000000000000000000000000000000062
:104E50000000000000000000000000000000000052
:104E60000000000000000000000000000000000042
:084E700000000000000000003A
:04000005080001519D
:00000001FF
